{
  "contractName": "Land",
  "abi": [
    {
      "inputs": [
        {
          "internalType": "string",
          "name": "_name",
          "type": "string"
        },
        {
          "internalType": "string",
          "name": "_symbol",
          "type": "string"
        },
        {
          "internalType": "uint256",
          "name": "_cost",
          "type": "uint256"
        }
      ],
      "stateMutability": "nonpayable",
      "type": "constructor"
    },
    {
      "anonymous": false,
      "inputs": [
        {
          "indexed": true,
          "internalType": "address",
          "name": "owner",
          "type": "address"
        },
        {
          "indexed": true,
          "internalType": "address",
          "name": "approved",
          "type": "address"
        },
        {
          "indexed": true,
          "internalType": "uint256",
          "name": "tokenId",
          "type": "uint256"
        }
      ],
      "name": "Approval",
      "type": "event"
    },
    {
      "anonymous": false,
      "inputs": [
        {
          "indexed": true,
          "internalType": "address",
          "name": "owner",
          "type": "address"
        },
        {
          "indexed": true,
          "internalType": "address",
          "name": "operator",
          "type": "address"
        },
        {
          "indexed": false,
          "internalType": "bool",
          "name": "approved",
          "type": "bool"
        }
      ],
      "name": "ApprovalForAll",
      "type": "event"
    },
    {
      "anonymous": false,
      "inputs": [
        {
          "indexed": true,
          "internalType": "address",
          "name": "from",
          "type": "address"
        },
        {
          "indexed": true,
          "internalType": "address",
          "name": "to",
          "type": "address"
        },
        {
          "indexed": true,
          "internalType": "uint256",
          "name": "tokenId",
          "type": "uint256"
        }
      ],
      "name": "Transfer",
      "type": "event"
    },
    {
      "inputs": [
        {
          "internalType": "address",
          "name": "to",
          "type": "address"
        },
        {
          "internalType": "uint256",
          "name": "tokenId",
          "type": "uint256"
        }
      ],
      "name": "approve",
      "outputs": [],
      "stateMutability": "nonpayable",
      "type": "function"
    },
    {
      "inputs": [
        {
          "internalType": "address",
          "name": "owner",
          "type": "address"
        }
      ],
      "name": "balanceOf",
      "outputs": [
        {
          "internalType": "uint256",
          "name": "",
          "type": "uint256"
        }
      ],
      "stateMutability": "view",
      "type": "function"
    },
    {
      "inputs": [
        {
          "internalType": "uint256",
          "name": "",
          "type": "uint256"
        }
      ],
      "name": "buildings",
      "outputs": [
        {
          "internalType": "string",
          "name": "name",
          "type": "string"
        },
        {
          "internalType": "address",
          "name": "owner",
          "type": "address"
        },
        {
          "internalType": "int256",
          "name": "posX",
          "type": "int256"
        },
        {
          "internalType": "int256",
          "name": "posY",
          "type": "int256"
        },
        {
          "internalType": "int256",
          "name": "posZ",
          "type": "int256"
        },
        {
          "internalType": "uint256",
          "name": "sizeX",
          "type": "uint256"
        },
        {
          "internalType": "uint256",
          "name": "sizeZ",
          "type": "uint256"
        },
        {
          "internalType": "uint256",
          "name": "sizeY",
          "type": "uint256"
        }
      ],
      "stateMutability": "view",
      "type": "function"
    },
    {
      "inputs": [],
      "name": "cost",
      "outputs": [
        {
          "internalType": "uint256",
          "name": "",
          "type": "uint256"
        }
      ],
      "stateMutability": "view",
      "type": "function"
    },
    {
      "inputs": [
        {
          "internalType": "uint256",
          "name": "tokenId",
          "type": "uint256"
        }
      ],
      "name": "getApproved",
      "outputs": [
        {
          "internalType": "address",
          "name": "",
          "type": "address"
        }
      ],
      "stateMutability": "view",
      "type": "function"
    },
    {
      "inputs": [
        {
          "internalType": "address",
          "name": "owner",
          "type": "address"
        },
        {
          "internalType": "address",
          "name": "operator",
          "type": "address"
        }
      ],
      "name": "isApprovedForAll",
      "outputs": [
        {
          "internalType": "bool",
          "name": "",
          "type": "bool"
        }
      ],
      "stateMutability": "view",
      "type": "function"
    },
    {
      "inputs": [],
      "name": "maxSupply",
      "outputs": [
        {
          "internalType": "uint256",
          "name": "",
          "type": "uint256"
        }
      ],
      "stateMutability": "view",
      "type": "function"
    },
    {
      "inputs": [],
      "name": "name",
      "outputs": [
        {
          "internalType": "string",
          "name": "",
          "type": "string"
        }
      ],
      "stateMutability": "view",
      "type": "function"
    },
    {
      "inputs": [
        {
          "internalType": "uint256",
          "name": "tokenId",
          "type": "uint256"
        }
      ],
      "name": "ownerOf",
      "outputs": [
        {
          "internalType": "address",
          "name": "",
          "type": "address"
        }
      ],
      "stateMutability": "view",
      "type": "function"
    },
    {
      "inputs": [
        {
          "internalType": "address",
          "name": "from",
          "type": "address"
        },
        {
          "internalType": "address",
          "name": "to",
          "type": "address"
        },
        {
          "internalType": "uint256",
          "name": "tokenId",
          "type": "uint256"
        }
      ],
      "name": "safeTransferFrom",
      "outputs": [],
      "stateMutability": "nonpayable",
      "type": "function"
    },
    {
      "inputs": [
        {
          "internalType": "address",
          "name": "from",
          "type": "address"
        },
        {
          "internalType": "address",
          "name": "to",
          "type": "address"
        },
        {
          "internalType": "uint256",
          "name": "tokenId",
          "type": "uint256"
        },
        {
          "internalType": "bytes",
          "name": "_data",
          "type": "bytes"
        }
      ],
      "name": "safeTransferFrom",
      "outputs": [],
      "stateMutability": "nonpayable",
      "type": "function"
    },
    {
      "inputs": [
        {
          "internalType": "address",
          "name": "operator",
          "type": "address"
        },
        {
          "internalType": "bool",
          "name": "approved",
          "type": "bool"
        }
      ],
      "name": "setApprovalForAll",
      "outputs": [],
      "stateMutability": "nonpayable",
      "type": "function"
    },
    {
      "inputs": [
        {
          "internalType": "bytes4",
          "name": "interfaceId",
          "type": "bytes4"
        }
      ],
      "name": "supportsInterface",
      "outputs": [
        {
          "internalType": "bool",
          "name": "",
          "type": "bool"
        }
      ],
      "stateMutability": "view",
      "type": "function"
    },
    {
      "inputs": [],
      "name": "symbol",
      "outputs": [
        {
          "internalType": "string",
          "name": "",
          "type": "string"
        }
      ],
      "stateMutability": "view",
      "type": "function"
    },
    {
      "inputs": [
        {
          "internalType": "uint256",
          "name": "tokenId",
          "type": "uint256"
        }
      ],
      "name": "tokenURI",
      "outputs": [
        {
          "internalType": "string",
          "name": "",
          "type": "string"
        }
      ],
      "stateMutability": "view",
      "type": "function"
    },
    {
      "inputs": [],
      "name": "totalSupply",
      "outputs": [
        {
          "internalType": "uint256",
          "name": "",
          "type": "uint256"
        }
      ],
      "stateMutability": "view",
      "type": "function"
    },
    {
      "inputs": [
        {
          "internalType": "uint256",
          "name": "_id",
          "type": "uint256"
        }
      ],
      "name": "mint",
      "outputs": [],
      "stateMutability": "payable",
      "type": "function"
    },
    {
      "inputs": [
        {
          "internalType": "address",
          "name": "from",
          "type": "address"
        },
        {
          "internalType": "address",
          "name": "to",
          "type": "address"
        },
        {
          "internalType": "uint256",
          "name": "tokenId",
          "type": "uint256"
        }
      ],
      "name": "transferFrom",
      "outputs": [],
      "stateMutability": "nonpayable",
      "type": "function"
    }
  ],
  "bytecode": "0x6080604052670de0b6b3a7640000600655600560075560006008553480156200002757600080fd5b50604051620031053803806200310583398181016040528101906200004d9190620002f1565b8282816000908051906020019062000067929190620001b8565b50806001908051906020019062000080929190620001b8565b5050508060068190555060096040518061010001604052808581526020013373ffffffffffffffffffffffffffffffffffffffff168152602001600081526020016000815260200160008152602001600a8152602001600a8152602001600a8152509080600181540180825580915050600190039060005260206000209060080201600090919091909150600082015181600001908051906020019062000129929190620001b8565b5060208201518160010160006101000a81548173ffffffffffffffffffffffffffffffffffffffff021916908373ffffffffffffffffffffffffffffffffffffffff16021790555060408201518160020155606082015181600301556080820151816004015560a0820151816005015560c0820151816006015560e0820151816007015550505050506200050d565b828054620001c69062000418565b90600052602060002090601f016020900481019282620001ea576000855562000236565b82601f106200020557805160ff191683800117855562000236565b8280016001018555821562000236579182015b828111156200023557825182559160200191906001019062000218565b5b50905062000245919062000249565b5090565b5b80821115620002645760008160009055506001016200024a565b5090565b60006200027f6200027984620003a2565b62000379565b9050828152602081018484840111156200029857600080fd5b620002a5848285620003e2565b509392505050565b600082601f830112620002bf57600080fd5b8151620002d184826020860162000268565b91505092915050565b600081519050620002eb81620004f3565b92915050565b6000806000606084860312156200030757600080fd5b600084015167ffffffffffffffff8111156200032257600080fd5b6200033086828701620002ad565b935050602084015167ffffffffffffffff8111156200034e57600080fd5b6200035c86828701620002ad565b92505060406200036f86828701620002da565b9150509250925092565b60006200038562000398565b90506200039382826200044e565b919050565b6000604051905090565b600067ffffffffffffffff821115620003c057620003bf620004b3565b5b620003cb82620004e2565b9050602081019050919050565b6000819050919050565b60005b8381101562000402578082015181840152602081019050620003e5565b8381111562000412576000848401525b50505050565b600060028204905060018216806200043157607f821691505b6020821081141562000448576200044762000484565b5b50919050565b6200045982620004e2565b810181811067ffffffffffffffff821117156200047b576200047a620004b3565b5b80604052505050565b7f4e487b7100000000000000000000000000000000000000000000000000000000600052602260045260246000fd5b7f4e487b7100000000000000000000000000000000000000000000000000000000600052604160045260246000fd5b6000601f19601f8301169050919050565b620004fe81620003d8565b81146200050a57600080fd5b50565b612be8806200051d6000396000f3fe6080604052600436106101095760003560e01c80636352211e11610095578063a22cb46511610064578063a22cb46514610389578063b88d4fde146103b2578063c87b56dd146103db578063d5abeb0114610418578063e985e9c51461044357610109565b80636352211e146102c857806370a082311461030557806395d89b4114610342578063a0712d681461036d57610109565b806313faede6116100dc57806313faede6146101dc57806318160ddd1461020757806323b872dd1461023257806342842e0e1461025b5780634c96a0621461028457610109565b806301ffc9a71461010e57806306fdde031461014b578063081812fc14610176578063095ea7b3146101b3575b600080fd5b34801561011a57600080fd5b5061013560048036038101906101309190611cba565b610480565b60405161014291906120ac565b60405180910390f35b34801561015757600080fd5b50610160610562565b60405161016d91906120c7565b60405180910390f35b34801561018257600080fd5b5061019d60048036038101906101989190611d0c565b6105f4565b6040516101aa9190612045565b60405180910390f35b3480156101bf57600080fd5b506101da60048036038101906101d59190611c7e565b610679565b005b3480156101e857600080fd5b506101f1610791565b6040516101fe919061234e565b60405180910390f35b34801561021357600080fd5b5061021c610797565b604051610229919061234e565b60405180910390f35b34801561023e57600080fd5b5061025960048036038101906102549190611b78565b61079d565b005b34801561026757600080fd5b50610282600480360381019061027d9190611b78565b6107f2565b005b34801561029057600080fd5b506102ab60048036038101906102a69190611d0c565b610812565b6040516102bf9897969594939291906120e9565b60405180910390f35b3480156102d457600080fd5b506102ef60048036038101906102ea9190611d0c565b610912565b6040516102fc9190612045565b60405180910390f35b34801561031157600080fd5b5061032c60048036038101906103279190611b13565b6109c4565b604051610339919061234e565b60405180910390f35b34801561034e57600080fd5b50610357610a7c565b60405161036491906120c7565b60405180910390f35b61038760048036038101906103829190611d0c565b610b0e565b005b34801561039557600080fd5b506103b060048036038101906103ab9190611c42565b610c09565b005b3480156103be57600080fd5b506103d960048036038101906103d49190611bc7565b610c1f565b005b3480156103e757600080fd5b5061040260048036038101906103fd9190611d0c565b610c81565b60405161040f91906120c7565b60405180910390f35b34801561042457600080fd5b5061042d610d28565b60405161043a919061234e565b60405180910390f35b34801561044f57600080fd5b5061046a60048036038101906104659190611b3c565b610d2e565b60405161047791906120ac565b60405180910390f35b60007f80ac58cd000000000000000000000000000000000000000000000000000000007bffffffffffffffffffffffffffffffffffffffffffffffffffffffff1916827bffffffffffffffffffffffffffffffffffffffffffffffffffffffff1916148061054b57507f5b5e139f000000000000000000000000000000000000000000000000000000007bffffffffffffffffffffffffffffffffffffffffffffffffffffffff1916827bffffffffffffffffffffffffffffffffffffffffffffffffffffffff1916145b8061055b575061055a82610dc2565b5b9050919050565b6060600080546105719061257d565b80601f016020809104026020016040519081016040528092919081815260200182805461059d9061257d565b80156105ea5780601f106105bf576101008083540402835291602001916105ea565b820191906000526020600020905b8154815290600101906020018083116105cd57829003601f168201915b5050505050905090565b60006105ff82610e2c565b61063e576040517f08c379a0000000000000000000000000000000000000000000000000000000008152600401610635906122ae565b60405180910390fd5b6004600083815260200190815260200160002060009054906101000a900473ffffffffffffffffffffffffffffffffffffffff169050919050565b600061068482610912565b90508073ffffffffffffffffffffffffffffffffffffffff168373ffffffffffffffffffffffffffffffffffffffff1614156106f5576040517f08c379a00000000000000000000000000000000000000000000000000000000081526004016106ec9061230e565b60405180910390fd5b8073ffffffffffffffffffffffffffffffffffffffff16610714610e98565b73ffffffffffffffffffffffffffffffffffffffff16148061074357506107428161073d610e98565b610d2e565b5b610782576040517f08c379a00000000000000000000000000000000000000000000000000000000081526004016107799061222e565b60405180910390fd5b61078c8383610ea0565b505050565b60065481565b60085481565b6107ae6107a8610e98565b82610f59565b6107ed576040517f08c379a00000000000000000000000000000000000000000000000000000000081526004016107e4906122ee565b60405180910390fd5b505050565b61080d83838360405180602001604052806000815250610c1f565b505050565b6009818154811061082257600080fd5b90600052602060002090600802016000915090508060000180546108459061257d565b80601f01602080910402602001604051908101604052809291908181526020018280546108719061257d565b80156108be5780601f10610893576101008083540402835291602001916108be565b820191906000526020600020905b8154815290600101906020018083116108a157829003601f168201915b5050505050908060010160009054906101000a900473ffffffffffffffffffffffffffffffffffffffff16908060020154908060030154908060040154908060050154908060060154908060070154905088565b6000806002600084815260200190815260200160002060009054906101000a900473ffffffffffffffffffffffffffffffffffffffff169050600073ffffffffffffffffffffffffffffffffffffffff168173ffffffffffffffffffffffffffffffffffffffff1614156109bb576040517f08c379a00000000000000000000000000000000000000000000000000000000081526004016109b29061226e565b60405180910390fd5b80915050919050565b60008073ffffffffffffffffffffffffffffffffffffffff168273ffffffffffffffffffffffffffffffffffffffff161415610a35576040517f08c379a0000000000000000000000000000000000000000000000000000000008152600401610a2c9061224e565b60405180910390fd5b600360008373ffffffffffffffffffffffffffffffffffffffff1673ffffffffffffffffffffffffffffffffffffffff168152602001908152602001600020549050919050565b606060018054610a8b9061257d565b80601f0160208091040260200160405190810160405280929190818152602001828054610ab79061257d565b8015610b045780601f10610ad957610100808354040283529160200191610b04565b820191906000526020600020905b815481529060010190602001808311610ae757829003601f168201915b5050505050905090565b60006008549050600754811115610b2457600080fd5b600073ffffffffffffffffffffffffffffffffffffffff166009600184610b4b9190612489565b81548110610b82577f4e487b7100000000000000000000000000000000000000000000000000000000600052603260045260246000fd5b906000526020600020906008020160010160009054906101000a900473ffffffffffffffffffffffffffffffffffffffff1673ffffffffffffffffffffffffffffffffffffffff1614610bd457600080fd5b600654341015610be357600080fd5b60086000815480929190610bf6906125e0565b9190505550610c053383611037565b5050565b610c1b610c14610e98565b8383611055565b5050565b610c30610c2a610e98565b83610f59565b610c6f576040517f08c379a0000000000000000000000000000000000000000000000000000000008152600401610c669061232e565b60405180910390fd5b610c7b848484846111c2565b50505050565b6060610c8c82610e2c565b610ccb576040517f08c379a0000000000000000000000000000000000000000000000000000000008152600401610cc2906122ce565b60405180910390fd5b6000610cd561121e565b90506000815111610cf55760405180602001604052806000815250610d20565b80610cff84611235565b604051602001610d10929190612021565b6040516020818303038152906040525b915050919050565b60075481565b6000600560008473ffffffffffffffffffffffffffffffffffffffff1673ffffffffffffffffffffffffffffffffffffffff16815260200190815260200160002060008373ffffffffffffffffffffffffffffffffffffffff1673ffffffffffffffffffffffffffffffffffffffff16815260200190815260200160002060009054906101000a900460ff16905092915050565b60007f01ffc9a7000000000000000000000000000000000000000000000000000000007bffffffffffffffffffffffffffffffffffffffffffffffffffffffff1916827bffffffffffffffffffffffffffffffffffffffffffffffffffffffff1916149050919050565b60008073ffffffffffffffffffffffffffffffffffffffff166002600084815260200190815260200160002060009054906101000a900473ffffffffffffffffffffffffffffffffffffffff1673ffffffffffffffffffffffffffffffffffffffff1614159050919050565b600033905090565b816004600083815260200190815260200160002060006101000a81548173ffffffffffffffffffffffffffffffffffffffff021916908373ffffffffffffffffffffffffffffffffffffffff160217905550808273ffffffffffffffffffffffffffffffffffffffff16610f1383610912565b73ffffffffffffffffffffffffffffffffffffffff167f8c5be1e5ebec7d5bd14f71427d1e84f3dd0314c0f7b2291e5b200ac8c7c3b92560405160405180910390a45050565b6000610f6482610e2c565b610fa3576040517f08c379a0000000000000000000000000000000000000000000000000000000008152600401610f9a9061220e565b60405180910390fd5b6000610fae83610912565b90508073ffffffffffffffffffffffffffffffffffffffff168473ffffffffffffffffffffffffffffffffffffffff16148061101d57508373ffffffffffffffffffffffffffffffffffffffff16611005846105f4565b73ffffffffffffffffffffffffffffffffffffffff16145b8061102e575061102d8185610d2e565b5b91505092915050565b6110518282604051806020016040528060008152506113e2565b5050565b8173ffffffffffffffffffffffffffffffffffffffff168373ffffffffffffffffffffffffffffffffffffffff1614156110c4576040517f08c379a00000000000000000000000000000000000000000000000000000000081526004016110bb906121ee565b60405180910390fd5b80600560008573ffffffffffffffffffffffffffffffffffffffff1673ffffffffffffffffffffffffffffffffffffffff16815260200190815260200160002060008473ffffffffffffffffffffffffffffffffffffffff1673ffffffffffffffffffffffffffffffffffffffff16815260200190815260200160002060006101000a81548160ff0219169083151502179055508173ffffffffffffffffffffffffffffffffffffffff168373ffffffffffffffffffffffffffffffffffffffff167f17307eab39ab6107e8899845ad3d59bd9653f200f220920489ca2b5937696c31836040516111b591906120ac565b60405180910390a3505050565b6111cd84848461143d565b6111d9848484846116a4565b611218576040517f08c379a000000000000000000000000000000000000000000000000000000000815260040161120f9061216e565b60405180910390fd5b50505050565b606060405180602001604052806000815250905090565b6060600082141561127d576040518060400160405280600181526020017f300000000000000000000000000000000000000000000000000000000000000081525090506113dd565b600082905060005b600082146112af578080611298906125e0565b915050600a826112a89190612458565b9150611285565b60008167ffffffffffffffff8111156112f1577f4e487b7100000000000000000000000000000000000000000000000000000000600052604160045260246000fd5b6040519080825280601f01601f1916602001820160405280156113235781602001600182028036833780820191505090505b5090505b600085146113d65760018261133c9190612489565b9150600a8561134b9190612629565b60306113579190612402565b60f81b818381518110611393577f4e487b7100000000000000000000000000000000000000000000000000000000600052603260045260246000fd5b60200101907effffffffffffffffffffffffffffffffffffffffffffffffffffffffffffff1916908160001a905350600a856113cf9190612458565b9450611327565b8093505050505b919050565b6113ec838361183b565b6113f960008484846116a4565b611438576040517f08c379a000000000000000000000000000000000000000000000000000000000815260040161142f9061216e565b60405180910390fd5b505050565b8273ffffffffffffffffffffffffffffffffffffffff1661145d82610912565b73ffffffffffffffffffffffffffffffffffffffff16146114b3576040517f08c379a00000000000000000000000000000000000000000000000000000000081526004016114aa9061218e565b60405180910390fd5b600073ffffffffffffffffffffffffffffffffffffffff168273ffffffffffffffffffffffffffffffffffffffff161415611523576040517f08c379a000000000000000000000000000000000000000000000000000000000815260040161151a906121ce565b60405180910390fd5b61152e838383611a15565b611539600082610ea0565b6001600360008573ffffffffffffffffffffffffffffffffffffffff1673ffffffffffffffffffffffffffffffffffffffff16815260200190815260200160002060008282546115899190612489565b925050819055506001600360008473ffffffffffffffffffffffffffffffffffffffff1673ffffffffffffffffffffffffffffffffffffffff16815260200190815260200160002060008282546115e09190612402565b92505081905550816002600083815260200190815260200160002060006101000a81548173ffffffffffffffffffffffffffffffffffffffff021916908373ffffffffffffffffffffffffffffffffffffffff160217905550808273ffffffffffffffffffffffffffffffffffffffff168473ffffffffffffffffffffffffffffffffffffffff167fddf252ad1be2c89b69c2b068fc378daa952ba7f163c4a11628f55a4df523b3ef60405160405180910390a461169f838383611a1a565b505050565b60006116c58473ffffffffffffffffffffffffffffffffffffffff16611a1f565b1561182e578373ffffffffffffffffffffffffffffffffffffffff1663150b7a026116ee610e98565b8786866040518563ffffffff1660e01b81526004016117109493929190612060565b602060405180830381600087803b15801561172a57600080fd5b505af192505050801561175b57506040513d601f19601f820116820180604052508101906117589190611ce3565b60015b6117de573d806000811461178b576040519150601f19603f3d011682016040523d82523d6000602084013e611790565b606091505b506000815114156117d6576040517f08c379a00000000000000000000000000000000000000000000000000000000081526004016117cd9061216e565b60405180910390fd5b805181602001fd5b63150b7a0260e01b7bffffffffffffffffffffffffffffffffffffffffffffffffffffffff1916817bffffffffffffffffffffffffffffffffffffffffffffffffffffffff191614915050611833565b600190505b949350505050565b600073ffffffffffffffffffffffffffffffffffffffff168273ffffffffffffffffffffffffffffffffffffffff1614156118ab576040517f08c379a00000000000000000000000000000000000000000000000000000000081526004016118a29061228e565b60405180910390fd5b6118b481610e2c565b156118f4576040517f08c379a00000000000000000000000000000000000000000000000000000000081526004016118eb906121ae565b60405180910390fd5b61190060008383611a15565b6001600360008473ffffffffffffffffffffffffffffffffffffffff1673ffffffffffffffffffffffffffffffffffffffff16815260200190815260200160002060008282546119509190612402565b92505081905550816002600083815260200190815260200160002060006101000a81548173ffffffffffffffffffffffffffffffffffffffff021916908373ffffffffffffffffffffffffffffffffffffffff160217905550808273ffffffffffffffffffffffffffffffffffffffff16600073ffffffffffffffffffffffffffffffffffffffff167fddf252ad1be2c89b69c2b068fc378daa952ba7f163c4a11628f55a4df523b3ef60405160405180910390a4611a1160008383611a1a565b5050565b505050565b505050565b6000808273ffffffffffffffffffffffffffffffffffffffff163b119050919050565b6000611a55611a508461238e565b612369565b905082815260208101848484011115611a6d57600080fd5b611a7884828561253b565b509392505050565b600081359050611a8f81612b56565b92915050565b600081359050611aa481612b6d565b92915050565b600081359050611ab981612b84565b92915050565b600081519050611ace81612b84565b92915050565b600082601f830112611ae557600080fd5b8135611af5848260208601611a42565b91505092915050565b600081359050611b0d81612b9b565b92915050565b600060208284031215611b2557600080fd5b6000611b3384828501611a80565b91505092915050565b60008060408385031215611b4f57600080fd5b6000611b5d85828601611a80565b9250506020611b6e85828601611a80565b9150509250929050565b600080600060608486031215611b8d57600080fd5b6000611b9b86828701611a80565b9350506020611bac86828701611a80565b9250506040611bbd86828701611afe565b9150509250925092565b60008060008060808587031215611bdd57600080fd5b6000611beb87828801611a80565b9450506020611bfc87828801611a80565b9350506040611c0d87828801611afe565b925050606085013567ffffffffffffffff811115611c2a57600080fd5b611c3687828801611ad4565b91505092959194509250565b60008060408385031215611c5557600080fd5b6000611c6385828601611a80565b9250506020611c7485828601611a95565b9150509250929050565b60008060408385031215611c9157600080fd5b6000611c9f85828601611a80565b9250506020611cb085828601611afe565b9150509250929050565b600060208284031215611ccc57600080fd5b6000611cda84828501611aaa565b91505092915050565b600060208284031215611cf557600080fd5b6000611d0384828501611abf565b91505092915050565b600060208284031215611d1e57600080fd5b6000611d2c84828501611afe565b91505092915050565b611d3e816124bd565b82525050565b611d4d816124cf565b82525050565b6000611d5e826123bf565b611d6881856123d5565b9350611d7881856020860161254a565b611d8181612716565b840191505092915050565b611d9581612507565b82525050565b6000611da6826123ca565b611db081856123e6565b9350611dc081856020860161254a565b611dc981612716565b840191505092915050565b6000611ddf826123ca565b611de981856123f7565b9350611df981856020860161254a565b80840191505092915050565b6000611e126032836123e6565b9150611e1d82612727565b604082019050919050565b6000611e356025836123e6565b9150611e4082612776565b604082019050919050565b6000611e58601c836123e6565b9150611e63826127c5565b602082019050919050565b6000611e7b6024836123e6565b9150611e86826127ee565b604082019050919050565b6000611e9e6019836123e6565b9150611ea98261283d565b602082019050919050565b6000611ec1602c836123e6565b9150611ecc82612866565b604082019050919050565b6000611ee46038836123e6565b9150611eef826128b5565b604082019050919050565b6000611f07602a836123e6565b9150611f1282612904565b604082019050919050565b6000611f2a6029836123e6565b9150611f3582612953565b604082019050919050565b6000611f4d6020836123e6565b9150611f58826129a2565b602082019050919050565b6000611f70602c836123e6565b9150611f7b826129cb565b604082019050919050565b6000611f93602f836123e6565b9150611f9e82612a1a565b604082019050919050565b6000611fb66031836123e6565b9150611fc182612a69565b604082019050919050565b6000611fd96021836123e6565b9150611fe482612ab8565b604082019050919050565b6000611ffc6031836123e6565b915061200782612b07565b604082019050919050565b61201b81612531565b82525050565b600061202d8285611dd4565b91506120398284611dd4565b91508190509392505050565b600060208201905061205a6000830184611d35565b92915050565b60006080820190506120756000830187611d35565b6120826020830186611d35565b61208f6040830185612012565b81810360608301526120a18184611d53565b905095945050505050565b60006020820190506120c16000830184611d44565b92915050565b600060208201905081810360008301526120e18184611d9b565b905092915050565b6000610100820190508181036000830152612104818b611d9b565b9050612113602083018a611d35565b6121206040830189611d8c565b61212d6060830188611d8c565b61213a6080830187611d8c565b61214760a0830186612012565b61215460c0830185612012565b61216160e0830184612012565b9998505050505050505050565b6000602082019050818103600083015261218781611e05565b9050919050565b600060208201905081810360008301526121a781611e28565b9050919050565b600060208201905081810360008301526121c781611e4b565b9050919050565b600060208201905081810360008301526121e781611e6e565b9050919050565b6000602082019050818103600083015261220781611e91565b9050919050565b6000602082019050818103600083015261222781611eb4565b9050919050565b6000602082019050818103600083015261224781611ed7565b9050919050565b6000602082019050818103600083015261226781611efa565b9050919050565b6000602082019050818103600083015261228781611f1d565b9050919050565b600060208201905081810360008301526122a781611f40565b9050919050565b600060208201905081810360008301526122c781611f63565b9050919050565b600060208201905081810360008301526122e781611f86565b9050919050565b6000602082019050818103600083015261230781611fa9565b9050919050565b6000602082019050818103600083015261232781611fcc565b9050919050565b6000602082019050818103600083015261234781611fef565b9050919050565b60006020820190506123636000830184612012565b92915050565b6000612373612384565b905061237f82826125af565b919050565b6000604051905090565b600067ffffffffffffffff8211156123a9576123a86126e7565b5b6123b282612716565b9050602081019050919050565b600081519050919050565b600081519050919050565b600082825260208201905092915050565b600082825260208201905092915050565b600081905092915050565b600061240d82612531565b915061241883612531565b9250827fffffffffffffffffffffffffffffffffffffffffffffffffffffffffffffffff0382111561244d5761244c61265a565b5b828201905092915050565b600061246382612531565b915061246e83612531565b92508261247e5761247d612689565b5b828204905092915050565b600061249482612531565b915061249f83612531565b9250828210156124b2576124b161265a565b5b828203905092915050565b60006124c882612511565b9050919050565b60008115159050919050565b60007fffffffff0000000000000000000000000000000000000000000000000000000082169050919050565b6000819050919050565b600073ffffffffffffffffffffffffffffffffffffffff82169050919050565b6000819050919050565b82818337600083830152505050565b60005b8381101561256857808201518184015260208101905061254d565b83811115612577576000848401525b50505050565b6000600282049050600182168061259557607f821691505b602082108114156125a9576125a86126b8565b5b50919050565b6125b882612716565b810181811067ffffffffffffffff821117156125d7576125d66126e7565b5b80604052505050565b60006125eb82612531565b91507fffffffffffffffffffffffffffffffffffffffffffffffffffffffffffffffff82141561261e5761261d61265a565b5b600182019050919050565b600061263482612531565b915061263f83612531565b92508261264f5761264e612689565b5b828206905092915050565b7f4e487b7100000000000000000000000000000000000000000000000000000000600052601160045260246000fd5b7f4e487b7100000000000000000000000000000000000000000000000000000000600052601260045260246000fd5b7f4e487b7100000000000000000000000000000000000000000000000000000000600052602260045260246000fd5b7f4e487b7100000000000000000000000000000000000000000000000000000000600052604160045260246000fd5b6000601f19601f8301169050919050565b7f4552433732313a207472616e7366657220746f206e6f6e20455243373231526560008201527f63656976657220696d706c656d656e7465720000000000000000000000000000602082015250565b7f4552433732313a207472616e736665722066726f6d20696e636f72726563742060008201527f6f776e6572000000000000000000000000000000000000000000000000000000602082015250565b7f4552433732313a20746f6b656e20616c7265616479206d696e74656400000000600082015250565b7f4552433732313a207472616e7366657220746f20746865207a65726f2061646460008201527f7265737300000000000000000000000000000000000000000000000000000000602082015250565b7f4552433732313a20617070726f766520746f2063616c6c657200000000000000600082015250565b7f4552433732313a206f70657261746f7220717565727920666f72206e6f6e657860008201527f697374656e7420746f6b656e0000000000000000000000000000000000000000602082015250565b7f4552433732313a20617070726f76652063616c6c6572206973206e6f74206f7760008201527f6e6572206e6f7220617070726f76656420666f7220616c6c0000000000000000602082015250565b7f4552433732313a2062616c616e636520717565727920666f7220746865207a6560008201527f726f206164647265737300000000000000000000000000000000000000000000602082015250565b7f4552433732313a206f776e657220717565727920666f72206e6f6e657869737460008201527f656e7420746f6b656e0000000000000000000000000000000000000000000000602082015250565b7f4552433732313a206d696e7420746f20746865207a65726f2061646472657373600082015250565b7f4552433732313a20617070726f76656420717565727920666f72206e6f6e657860008201527f697374656e7420746f6b656e0000000000000000000000000000000000000000602082015250565b7f4552433732314d657461646174613a2055524920717565727920666f72206e6f60008201527f6e6578697374656e7420746f6b656e0000000000000000000000000000000000602082015250565b7f4552433732313a205472616e736665722063616c6c6572206973206e6f74206f60008201527f776e6572206e6f7220617070726f766564000000000000000000000000000000602082015250565b7f4552433732313a20617070726f76616c20746f2063757272656e74206f776e6560008201527f7200000000000000000000000000000000000000000000000000000000000000602082015250565b7f4552433732313a207472616e736665722063616c6c6572206973206e6f74206f60008201527f776e6572206e6f7220617070726f766564000000000000000000000000000000602082015250565b612b5f816124bd565b8114612b6a57600080fd5b50565b612b76816124cf565b8114612b8157600080fd5b50565b612b8d816124db565b8114612b9857600080fd5b50565b612ba481612531565b8114612baf57600080fd5b5056fea264697066735822122012d1ff569ff7e4e7055a5cce2fd5604086495bdc80f3e07a752cd40e9b251de364736f6c63430008020033",
  "immutableReferences": {},
  "source": "// SPDX-License-Identifier: MIT\r\npragma solidity ^0.8.0;\r\n\r\nimport \"@openzeppelin/contracts/token/ERC721/ERC721.sol\";\r\n\r\ncontract Land is ERC721{\r\n   uint256 public cost = 1 ether;\r\n   uint256 public maxSupply = 5;\r\n   uint256 public totalSupply = 0;\r\n\r\n   struct Building{\r\n      string name;\r\n      address owner;\r\n      int256 posX;\r\n      int256 posY;\r\n      int256 posZ;\r\n      uint256 sizeX;\r\n      uint256 sizeZ;\r\n      uint256 sizeY;\r\n   }\r\n\r\n   Building[] public buildings;\r\n\r\n   constructor(string memory _name, string memory _symbol, uint256 _cost) ERC721(_name, _symbol){\r\n      cost = _cost;\r\n      buildings.push(\r\n         Building(\r\n            _name,\r\n            msg.sender,\r\n            0,\r\n            0,\r\n            0,\r\n            10,\r\n            10,\r\n            10\r\n         )\r\n      );\r\n\r\n   }\r\n\r\n\r\n   function mint(uint256 _id) public payable{\r\n      uint256 supply = totalSupply;\r\n      require(supply <= maxSupply);\r\n      require(buildings[_id-1].owner == address(0x0));\r\n      require(msg.value >= cost);\r\n      totalSupply++;\r\n\r\n      _safeMint(msg.sender, _id);\r\n   }\r\n\r\n   function transferFrom(address from, address to,uint256 tokenId) public override {\r\n      require(_isApprovedOrOwner(_msgSender(), tokenId), \"ERC721: Transfer caller is not owner nor approved\");\r\n   }\r\n}\r\n\r\n\r\n",
  "sourcePath": "C:\\Users\\pin-d\\Desktop\\projects\\web_projects\\tutorials\\Dapp_University\\metaverse\\src\\contracts\\Land.sol",
  "compiler": {
    "name": "solc",
    "version": "0.8.2+commit.661d1103.Emscripten.clang"
  },
  "schemaVersion": "3.4.5",
  "updatedAt": "2022-04-20T15:48:44.697Z",
  "devdoc": {
    "kind": "dev",
    "methods": {
      "approve(address,uint256)": {
        "details": "See {IERC721-approve}."
      },
      "balanceOf(address)": {
        "details": "See {IERC721-balanceOf}."
      },
      "getApproved(uint256)": {
        "details": "See {IERC721-getApproved}."
      },
      "isApprovedForAll(address,address)": {
        "details": "See {IERC721-isApprovedForAll}."
      },
      "name()": {
        "details": "See {IERC721Metadata-name}."
      },
      "ownerOf(uint256)": {
        "details": "See {IERC721-ownerOf}."
      },
      "safeTransferFrom(address,address,uint256)": {
        "details": "See {IERC721-safeTransferFrom}."
      },
      "safeTransferFrom(address,address,uint256,bytes)": {
        "details": "See {IERC721-safeTransferFrom}."
      },
      "setApprovalForAll(address,bool)": {
        "details": "See {IERC721-setApprovalForAll}."
      },
      "supportsInterface(bytes4)": {
        "details": "See {IERC165-supportsInterface}."
      },
      "symbol()": {
        "details": "See {IERC721Metadata-symbol}."
      },
      "tokenURI(uint256)": {
        "details": "See {IERC721Metadata-tokenURI}."
      },
      "transferFrom(address,address,uint256)": {
        "details": "See {IERC721-transferFrom}."
      }
    },
    "version": 1
  },
  "userdoc": {
    "kind": "user",
    "methods": {},
    "version": 1
  }
}